:020000040800F2
:1000000068050020C90000081D1F0008091200082B
:1000100000000000000000000000000000000000E0
:10002000000000000000000000000000671F000842
:100030000000000000000000651F0008691F0008A4
:10004000DB00000800000000DB000008DB00000807
:10005000DB000008DB000008DB000008DB00000814
:1000600000000000DB000008DB000008DB000008E7
:10007000DB000008DB000008DB00000800000000D7
:10008000DB000008DB00000800000000DB000008C7
:10009000DB000008DB000008DB0000080D12000890
:1000A000DB000008DB000008DB0000085D2400081E
:1000B000DB0000080348854600F03CF80048004794
:1000C000A12600086805002004488047044800472E
:1000D000FEE7FEE7FEE7FEE7FEE7FEE73D2000085D
:1000E000B500000830B50B4601460020202201244F
:1000F00009E00D46D5409D4205D31D469540491B5C
:100100002546954040191546521E002DF1DC30BDA4
:10011000D2B201E00270401C491EFBD2704700229F
:10012000F6E710B513460A4604461946FFF7F0FFF6
:10013000204610BD064C0125064E05E0E36807CCBD
:100140002B430C3C98471034B442F7D3FFF7B6FF6B
:10015000E02600080027000870B500240146203181
:100160004A78022A03D004218163012416E0026840
:1001700013680E25AB431360026813685B085B00CD
:1001800013600122056C1346AB40C56B6B604A706F
:1001900000220A70416B002900D08847204670BDBC
:1001A00031B500F01FF9009C0546601C00D0641CAE
:1001B00000F018F9401BA042FAD338BDF0B5002377
:1001C00058E001229A4014460A4052D006685F0067
:1001D0000325BD40AE43AC460660DD08AD002D18DA
:1001E0002E6AAE465D07EF0E0F25BD40AE43754645
:1001F0002E6286686546AE4386604568A5434560C5
:10020000C4686546AC43C4609D081C4CAD002D1904
:10021000AF689C07260F0F24B440A4463C40092732
:10022000FF06B84201D100270FE0154FB84201D1B7
:1002300001270AE0134FB84201D1022705E0124F0F
:10024000B84201D1032700E00527B740A74210D1EB
:10025000AE686446A643AE600C4C256895432560A5
:10026000656895436560A5689543A560E568954315
:10027000E5605B1C0A46DA40A3D1F0BD00000140F6
:100280000004004800080048000C00480004014039
:10029000F8B500238DE001249C40A44622407DD087
:1002A0004C68022C01D0122C0CD1DC08A4002718B9
:1002B0003C6A5D07ED0E0F26AE40B4430E69AE40BA
:1002C00026433E6205685E000324B4400F79A543CF
:1002D000BF07BF0FB7402F4307604D68012D05D002
:1002E000022D03D0112D01D0122D0ED18568CF68BB
:1002F000A543B7402F43876047686546AF430D79F4
:10030000ED06ED0F9D403D434560C568A5438C68F3
:10031000B4402C43C4604C68E40049D5284CA5691E
:1003200001263543A561A4699D0834400094254CFD
:10033000AD002F19BC689D072E0F0F25B540AC43AB
:100340000925ED06A84201D100250FE01E4DA84267
:1003500001D101250AE01D4DA84201D1022505E089
:100360001B4DA84201D1032500E00525B5402543DA
:10037000BD60184C25684E689543F60300D51543BB
:10038000256065684E689543B60300D515436560E2
:10039000A5684E689543F60202D500E008E01543D3
:1003A000A560E5684E689543B60200D51543E56043
:1003B0005B1C0A681446DC4000D06CE7F8BD000006
:1003C00000100240000001400004004800080048FE
:1003D000000C004800040140002A01D081617047F0
:1003E00081627047014800687047000014000020D7
:1003F00070B5024640325378202B1CD11378012B64
:1004000019D00123137024245470046825689D4377
:100410002560046825681E03B543256004682568C7
:100420000D43256000680168194301602020507069
:100430000020107070BD022070BD70B502464032C1
:100440005378202B1BD11378012B18D00124147062
:100450002423537003681D68A5431D6005682B683D
:100460000F263602B3430902194329600068016868
:1004700021430160202050700020107070BD0220C8
:1004800070BD7047704770B5040014D02421204619
:100490004030054641702068016849084900016004
:1004A000204600F06FF90021616469702163A97032
:1004B0002970084670BD012070BD70B503689A6947
:1004C0001968D40507D50C0605D5446C01252C43C5
:1004D00044642C02DC61530508D50B0606D5436C39
:1004E000082423434364E3010468E361920508D5CB
:1004F000090606D5416C02221143416411020268CB
:10050000D161416C0B22114202D0416C00F054FFCA
:1005100070BD026891691268436B002B00D01847C8
:100520007047000002480121C1700021017070472E
:1005300000000020406C7047403040787047000059
:1005400070B5040006D0254640356878002600289E
:1005500002D005E0012070BD2E70204600F02CF97D
:1005600024206870206801684908490001600F2153
:100570006068090688432168086121688A6801204B
:10058000C00382438A60E1680129A16808D0212262
:100590009202114322689160E168022902D005E0CD
:1005A0000143F7E701212268C902516021684A68C6
:1005B0000F4B1A434A602168CA688243CA60616966
:1005C00020690843A169090208432168C860216ABB
:1005D000E06908432168086020680168012211432E
:1005E00001606664202068702663AE70002070BDD4
:1005F000008000027047000000680449884203D16F
:1006000003480121817001707047000000540040D0
:100610000000002000680449884203D103480121FA
:10062000417001707047000000540040000000203D
:10063000F8B5044605464034A0780E46102801D08F
:100640000120F8BD207801281CD001202070022153
:10065000284600F005FE0121284600F001FE60203A
:10066000607001208003C3020090012231462846B9
:1006700001F036FA002020701221284600F01CFEFE
:100680000020F8BD0220F8BDF8B505460446403507
:100690006878202830D120688069C04300042BD5B9
:1006A0002878012828D00120287022206870102086
:1006B000A87000266664626263851048E062104894
:1006C0006063608DFF2804D9FF20012320851B066D
:1006D00003E0608D012320855B06092080020090E5
:1006E000208DC2B2204601F0FBF92E700221204677
:1006F00000F0E2FD0020F8BD0220F8BD0000FFFF81
:10070000C1170008F8B5054604464035687820282A
:1007100030D120688069C04300042BD52878012897
:1007200028D001202870212068701020A870002691
:100730006664626263851048E06210486063608DA1
:10074000FF2804D9FF20012320851B0603E0608DCC
:10075000012320855B06012040030090208DC2B25A
:10076000204601F0BDF92E700121204600F0A4FDC5
:100770000020F8BD0220F8BD0000FFFFC1170008EF
:100780007047704710B50068084988420CD1084886
:10079000C169012252059143C161C0210548FFF79B
:1007A0000DFD172000F082F810BD0000005400403D
:1007B000001002400004004800B50068114987B0ED
:1007C00088421DD1C02000901220012101900320F9
:1007D00002910491039069460B48FFF759FD0B48BD
:1007E000C269012149050A43C261C069002208406B
:1007F00005901146172000F06DF8172000F060F802
:1008000007B000BD00540040000400480010024042
:100810007047704702480168491C0160704700003A
:100820001400002010B50648016810221143016031
:10083000002000F007F800F017F8002010BD0000BD
:100840000020024010B5044600F052F97D21C90095
:10085000FFF748FC00F09EFB00222146501E00F0EE
:1008600039F8002010BD000008B50F488169012249
:1008700011438161816911400091C26901040A43F9
:10088000C261C0690022084000901146501F00F06C
:1008900021F800221146901E00F01CF8002211469B
:1008A000501E00F017F808BD00100240C106C90E26
:1008B00001208840014908607047000080E100E0A5
:1008C000C106C90E01208840014908607047000038
:1008D00000E100E010B501F023FB10BDF8B50546BE
:1008E0000068354CC00352D5E0690026C00007D42B
:1008F000E16920040143E161E169014001260091C1
:100900002E480168C90510D40168821511430160A1
:10091000FFF768FD074604E0FFF764FDC01B64288D
:1009200024D826480068C005F6D5206A03273F0270
:10093000384020D06968394081421CD0206A226A40
:10094000B843012109040A432262226A8A432262CF
:100950002062C0070FD0FFF745FD009008E0FFF7C9
:1009600041FD0099411A1648814201D90320F8BD82
:10097000206A8007F3D5206A6968B843084320627B
:10098000002E04D0E169012000078143E16128784D
:10099000C00705D0206BA968800880000843206349
:1009A0002878800605D5206B10218843E968084324
:1009B00020630020F8BD00000010024000700040DD
:1009C00088130000F8B5054644480E460068C00785
:1009D000C00FB0420AD2414801684908490031437A
:1009E00001600068C007C00FB0425CD128783C4C61
:1009F000800705D56068F0218843A96808436060D6
:100A00002878C0073FD06868012813D021680228E1
:100A100013D08907002946DA6168890889000143F3
:100A20006160FFF7DFFC6968074601290DD00229E4
:100A300017D024E021688903ECE78901EAE7FFF792
:100A4000D1FCC11B2748814217D860680007800F7E
:100A50000128F4D117E0FFF7C5FCC11B21488142F2
:100A60000BD860680007800F0228F4D10BE0FFF775
:100A7000B9FCC11B1B48814201D90320F8BD606845
:100A80000007800FF3D115480168C907C90FB142AB
:100A90000BD9016849084900314301600068C0076B
:100AA000C00FB04201D00120F8BD2878400706D51C
:100AB0006068072109028843E9680843606000F024
:100AC0002DF86168084A0906090F515CC8400749BA
:100AD00008600020FFF7B6FE0020F8BD00200240AD
:100AE0000010024088130000C626000818000020ED
:100AF00001480068704700001800002004480549BC
:100B000000684968044A4905490F515CC84070476C
:100B10001800002000100240D626000810B512A3CD
:100B20000FCB88B06C460FC413A30FCB0FC416496C
:100B30004A680C20134603401448042B0FD0082B9E
:100B40000DD193021B0F6C46E45CC96A04AB090724
:100B5000090F595CD20304D5FFF7C4FA604308B00B
:100B600010BD0B486043FAE70203040506070809B5
:100B70000A0B0C0D0E0F10100102030405060708E6
:100B8000090A0B0C0D0E0F100010024000127A0023
:100B900000093D00FEB504460078D04DC00747D09F
:100BA00068680007800F012807D068680007800F79
:100BB000022809D16868C00306D52868800337D5A4
:100BC000606800287ED033E0012062680004012ABA
:100BD00011D08100002A01D0052A10D02A68824352
:100BE0002A602868884328606068002814D0FFF7CE
:100BF000F9FB06460CE0296801432960F4E72A68FE
:100C00000A432A60F7E7FFF7EDFB801B64286FD8E3
:100C100028688003F7D50BE0FFF7E4FB064604E005
:100C2000FFF7E0FB801B6428F1D828688003F7D425
:100C300020780126800700283BDA68680007800FCB
:100C400007D068680007800F022809D16868C003D0
:100C500006D42868800715D5E068012832D111E054
:100C6000E0680028286815D030432860FFF7BAFBF9
:100C7000074604E0FFF7B6FBC01B0228C7D8286868
:100C80008007F7D52868F82188432169C9000843FF
:100C900028600EE0400840002860FFF7A3FB0746ED
:100CA00004E0FFF79FFBC01B0228B0D8286880072C
:100CB000F7D42078000724D5E0690028686A10D0AE
:100CC000304300E008E16862FFF78CFB074604E070
:100CD000FFF788FBC01B022899D8686A8007F7D500
:100CE0000FE0400840006862FFF77CFB074605E024
:100CF0009DE0FFF777FBC01B022888D8686A800751
:100D0000F7D4207804274007002860DA00200190FB
:100D1000E869C00008D4E969B8060143E961E969F6
:100D200001400120009101906D480168C90511D46E
:100D30000168821511430160FFF754FB009005E044
:100D4000FFF750FB0099401A642870D86448006887
:100D5000C005F5D5A06801280AD0002801D00528D3
:100D600010D0286A400840002862286AB84301E091
:100D7000286A30432862A068002812D0FFF732FBAF
:100D800000900AE0286A38432862F1E7FFF72AFB5F
:100D90000099411A5348814249D8286A8007F5D5FD
:100DA0000DE0FFF71FFB009006E0FFF71BFB00992B
:100DB000411A4C4881423AD8286A8007F5D40198F4
:100DC000002804D0E969012000078143E961207807
:100DD000C00635D5606901280CD0401D686B23D052
:100DE00038436863686B400840006863FFF7FAFAAD
:100DF000064622E0686B38436863686B304368637B
:100E0000FFF7F0FA064604E0FFF7ECFA801B022831
:100E10005BD8686B8007F7D5686BF8218843A169B8
:100E2000C900084368630BE0B8436863F4E74CE02B
:100E3000FFF7D8FA801B022847D8686B8007F7D4E1
:100E4000206A002846D069680907890F022943D023
:100E5000012636060228286805D0B0432860FFF72F
:100E6000C1FA044633E0B0432860FFF7BBFA0746F7
:100E700004E0FFF7B7FAC01B022826D828688001D3
:100E8000F7D4E86AE16A000900010843E862616A90
:100E9000A06A084369683D221204914308436860D0
:100EA000286830432860FFF79DFA044604E0FFF706
:100EB00099FA001B022808D828688001F7D509E0B4
:100EC000FFF790FA001B022801D90320FEBD286815
:100ED0008001F5D40020FEBD0120FEBD00100240BF
:100EE0000070004088130000FFB581B016460F4621
:100EF000040005D025466035687A002803D007E055
:100F0000012005B0F0BD00202872204600F0EAF86C
:100F10002420687220680168490849000160204661
:100F200001F08CF90128ECD0606A002802D020463C
:100F300001F0B2F8206881680122920311438160B8
:100F4000206881685200914339438160049871059B
:100F50000004084321680A68064B1A4002430A60ED
:100F600020680168012211430160204601F0F9F870
:100F7000C7E70000FFFF00FC0422044904280869B9
:100F800002D09043086170471043FBE700E000E0A7
:100F900070470000094910B5401E884201D9012060
:100FA00010BD074C60610321081F00F0B9FF00204D
:100FB000A06107202061002010BD0000FFFFFF009E
:100FC00000E000E010B5FFF7E3FF10BD7047000040
:100FD000F8B503680446D96918680D072D0F07D1C5
:100FE0008A0605D5820603D5204601F0E9F8F8BD4A
:100FF0009A68002D64D0D507ED0FFF2621360640F4
:101000002E435DD0CE0706D0C60504D501261E624C
:10101000E36E3343E3668F0702230426002F06DACC
:10102000D70704D027683B62E76E3743E7664F0770
:1010300006D5D20704D022681662E26E1A43E26631
:101040000A0709D5202202402A4305D02368082236
:101050001A62E36E1343E366E26E002AC7D0890684
:1010600004D5800602D5204601F0AAF8E06E0007FC
:1010700003D42068806840061CD5204601F084F81F
:1010800020688168490611D58168402291438160BA
:10109000606E00280AD012494163606EFFF75CF869
:1010A0000028A4D0606E416B8847F8BD2046FFF74A
:1010B0008DFFF8BD2046FFF789FF0020E066F8BDF0
:1010C0000A0605D5020603D5204601F04FF9F8BD02
:1010D0004906FCD54006FAD5204601F064F8F8BD73
:1010E0007521000800B50068134987B0884220D1F7
:1010F00012488269012189030A438261806908409C
:1011000005900B20400200900220019000200290E8
:10111000032003900120049009206946C006FFF7D0
:10112000B7F8002211461B20FFF7D4FB1B20FFF766
:10113000C7FB07B000BD00000038014000100240AE
:1011400070B5034660339C7A202C39D100290BD02E
:10115000002A09D0012584682D03AC4206D1066916
:10116000002E03D1CE0701D0012070BD1E7A012EC2
:1011700026D001261E724165014640310A834A830A
:10118000FF22AC4204D10469002C07D10D4A05E0CE
:10119000002C04D10469002C00D07F228A83002116
:1011A000C16622229A72197201688A6832438A6083
:1011B00000680168FF22213211430160002070BDE8
:1011C000022070BDFF01000010B500680749884289
:1011D0000AD107484179002001F0FCF804490122B6
:1011E000491D0448FFF7ACFF10BD00000038014066
:1011F0005C000020F4000020024804224188914352
:10120000418070471C000020FEE7000010B5064832
:10121000006880694005400F034802D0FFF74DF990
:1012200010BDFFF776F910BDA800002010B5406A88
:1012300001684A680123DB031A434A60826B00217C
:101240005163C26B5163014640314A78602A02D033
:10125000FFF768F910BD20224A70FFF712F910BDA0
:10126000F0B503460022CE0740332824B025002ED7
:1012700005D05E7842222746B74300D0F2228E077F
:1012800005D544265B7832439C4300D02A434B0764
:1012900001D5B8231A4311238B4301D190231A435C
:1012A00012238B4301D160210A43006801689143F6
:1012B00001600020F0BD000070B5164D1223446B94
:1012C000002220268B43AC4202D0134DAC420DD1FC
:1012D0004C0700D5B82211248C4301D190210A4338
:1012E000002B11D1324340210A430DE04C0700D5B9
:1012F000B822CC0701D0F2242243890701D5F4217A
:101300000A43002B00D13243006801681143016099
:10131000002070BDFF1600086119000801688A6985
:10132000D243920701D400228A6200688169C943CE
:10133000C90703D081690122114381617047F8B563
:10134000054604464035687828218143206804D04A
:101350000821C16100202870F8BD8169C903CF0F41
:101360008169FE230E0C81681E408A05C168920DBA
:1013700019408C46E168022912D10621D3090E409A
:101380000B409E420BD1A16C491CA164A16C0229A7
:10139000E2D10021A1640823C361297007E06646F9
:1013A00004212046FFF75CFF0020287032463946B2
:1013B0002046FFF767F8F8BDF8B50026054640352A
:1013C0000446AE702C48E0626685606C0843606439
:1013D00068782027282823D06878292820D06878A2
:1013E0002A281DD007212046FFF73AFF6878602899
:1013F00000D06F7026636663206801684A041F4945
:10140000026817D501239B039A430260A06B4163D6
:101410002E70A06BFEF7A0FE00281DD0A06B19E077
:1014200003212046FFF71CFF28206870266314481C
:101430006063E1E7120410D502680123DB039A43DD
:101440000260E06B41632E70E06BFEF785FE0028C2
:1014500002D0E06B416B8847F8BD6878602804D003
:101460002E702046FFF75EF8F8BD6F702E70204694
:10147000FFF707F8F8BD00000000FFFF2D1200087D
:10148000C919000870B504461548E06200252563B7
:10149000202220464030064642708570656348072A
:1014A00011D52068416A606A421C62620170208D19
:1014B000002808D0401E2085608D401E6085606C2D
:1014C00004210843606407212046FFF7C9FE216814
:1014D0001020C86135702046FFF78CF870BD000001
:1014E0000000FFFFF8B5064600682027C761306896
:1014F0004268224B1A4042600025356320487563DC
:10150000F062C80606D531681020C861706C0421ED
:10151000084370643046FFF701FF03213046FFF7B0
:101520009FFE706C002814D13446403460786028E7
:101530000FD06078212811D06078222808D16770F8
:10154000A078A57040282570304614D0FFF754F8D5
:10155000F8BD716C3046FFF72FFFF8BD6770A078BB
:10156000A57040282570304602D0FFF753F8F8BD2B
:10157000FFF707F9F8BDFFF703F9F8BD00E800FE33
:101580000000FFFF70B50025064640360446B570E2
:1015900071782020212970700BD012202063022145
:1015A00020466563FFF75CFE35702046FFF724F8A0
:1015B00070BD11202063012120466563FFF750FEB6
:1015C00035702046FFF726F870BD0000F8B50446D8
:1015D000006820260F46C66121680820C8610721DF
:1015E0002046FFF73DFE20684168B202114341608A
:1015F000206841682D4A114041602046FFF78EFE69
:1016000020680168254649044035002902DB01684D
:10161000090406D5697821292FD0E16B096849684A
:101620006185628D0421002A02D0626C0A436264E3
:101630007A070FD5426A606A431C63620270208D8C
:10164000002807D0401E2085608D401E6085606C9C
:101650000843606400202063A8706063616C002907
:101660000DD0616C2046FFF7A7FE6878282803D1CB
:1016700039462046FFF706FFF8BDA16BCEE7E26AC8
:101680000B498A4206D0E1626E7028702046FEF750
:10169000B1FFF8BD69786E7022292870204602D00B
:1016A000FFF7B7F8F8BDFFF7B3F8F8BD00E800FEA4
:1016B0000000FFFF70B50026044640340546A670C2
:1016C0006178282029290ED061782A290AD16070F2
:1016D0002220286302212846FFF7C2FD26702846F3
:1016E000FFF796F870BD607021202863012128461D
:1016F000FFF7B6FD26702846FFF78BF870BDF8B5EA
:101700000546044640352878012816D00120287067
:10171000C8060026002812DAD00610D5216810204D
:10172000C861606C04210843606412212046FFF701
:10173000C3FD2046FFF7F2FD3FE00220F8BD08069A
:1017400034D5500632D520680168402291430160AB
:10175000608D002825D0206840688105608D890D46
:10176000FF2803D9FF202085930403E0608D012327
:1017700020855B060096208DC2B2204600F0B0F9AD
:10178000608D218D401A6085687822282068016864
:1017900004D001229203114301600EE00122D20322
:1017A000F9E740212046FFF707FE06E0880604D54A
:1017B000900602D52046FFF795FE2E700020F8BD5A
:1017C000F8B5074604464037387815460E460128D6
:1017D00010D001203870F0060ED5E8060CD521682F
:1017E0001020C861606C0421084360642046FFF744
:1017F00095FD5BE00220F8BD700708D5680706D5A7
:101800002068416A606A421C6262017009E0B007A8
:101810000ED5A8070CD5606A411C6162216800786A
:101820008862208D401E2085608D401E60853DE0D1
:101830002C4A30062FD568062DD5208D002825D1BD
:10184000608D002822D0206840688105608D890D58
:10185000FF2806D9FF220020228501231B060090C5
:1018600010E0608D2085E06A904205D00020009055
:10187000E36A208DC2B205E000200090208D012394
:10188000C2B25B06204600F02BF90FE020684068EA
:10189000800123D506E0700608D5680606D5608D60
:1018A00000280ED040212046FFF786FDB00605D562
:1018B000A80603D531462046FFF714FE00203870F5
:1018C000F8BD206841688901F0D4E16A914205D1F0
:1018D00041680122920311434160E7E72046FFF788
:1018E00051FEE3E70000FFFF10B58AB07F21684694
:1018F0000170002404710121029081810174401C57
:10190000059002216846018301A8079008911148BB
:10191000FEF712FE0F4940312028487817D12028C1
:1019200015D107A800F0B2FD002810D10A4881782F
:1019300000290CD0847068468178427808021043F0
:10194000064940BA884202D101200AB010BD0020E9
:10195000FBE70000A8000020000000205530000038
:1019600010B5044640342378012B15D00123237091
:10197000CB0618D5D30616D5617821290ED0C16BB8
:1019800009684968102200290AD00168CA61416CBF
:1019900004221143416414E0022010BD816BEFE783
:1019A0000068C2610DE00B0705D5130703D5006879
:1019B0000821C16105E08B0603D5920601D5FFF72A
:1019C00005FE0020207010BDF8B5054604464035E0
:1019D000287816460F46012811D0012028703F496B
:1019E000F8062DD5F0062BD5628D1020002A08D0E0
:1019F0002168C861606C04210843606462E00220D1
:101A0000F8BDE36A01225206934202D0E36A934290
:101A100002D16A78282A08D0E26A8A4202D069781C
:101A2000292907D02168C8614CE039462046FFF7D4
:101A300029FD47E02168C8612046FFF76FFC3EE0C2
:101A4000780717D5700715D5608D00280BD0206852
:101A5000426A606A431C63620270208D401E2085CA
:101A6000608D401E6085608D00282BD1E06A884221
:101A700025D127E0380706D5300704D5394620465A
:101A8000FFF75DFC1EE0B8071CD5B0071AD5608DC6
:101A900000280CD0606A411C61622168007888626D
:101AA000608D401E6085208D401E20850AE0E06A22
:101AB00001210906884202D0E06A002802D12046AE
:101AC000FFF7F8FDB80605D5B00603D53946204620
:101AD000FFF77CFD00202870F8BD00000000FFFF2C
:101AE00070B50568049C68688905890D1204044E68
:101AF00011431943304021430143696070BD000028
:101B0000009800FC10B554210148FEF791FD10BD6E
:101B1000A800002010B5084C0648608100F00EF8BF
:101B200000F064F900F08EFD0120A0710020E0714A
:101B300010BD0000C17400000000002038B51C2159
:101B4000684601708021417000248470032100F0F8
:101B500019FD0A20FEF724FB00F00AF91B21684654
:101B60000170022545700C218170032100F00AFDEF
:101B700019216846017044708470032100F002FD51
:101B8000152168460170102141708570032100F015
:101B9000F9FC11216846017044700A21817003210B
:101BA00000F0F0FC09216846017004214170D62143
:101BB0008170032100F0E6FC0D216846017044703D
:101BC0008470032100F0DEFC1F216846017058215B
:101BD00041708470032100F0D5FC1A216846017021
:101BE0005421417081218170032100F0CBFC38BD6C
:101BF00000250C4C00F08CF8002809D000F030F8DB
:101C0000E168884204D0E06000F0EEFC00F01AFDCC
:101C10002079002800D0257160790028EAD065710C
:101C2000E8E700000000002010B5FFF76BFF14206C
:101C3000FEF7B6FA0148FEF726FC10BDA80000200A
:101C400010B51420FEF7ACFA0348C179491CC171E4
:101C50000248FEF775FC10BD00000020A80000201F
:101C6000F0B58DB002206946087200240C7302A9F9
:101C70000491012569468D820D7609310091079105
:101C80006946088403A90B900A910AA800F0FEFB9C
:101C9000002816D11D488178002912D08470694629
:101CA000497A0A0907D0417A8022114341720572AC
:101CB00000200DB0F0BD04720807070D6846807A59
:101CC0000743032168460172047302A80490684622
:101CD000858205760098079002216846018403A852
:101CE0000A900B910AA800F0D1FB00280AD10748FE
:101CF0008178002906D084706846817A427A080289
:101D0000104346BA38048019D3E7000000000020D1
:101D100010B58AB0182168460170002404710121B1
:101D2000029081810174401C059002216846018364
:101D300001A80790089107A800F0A8FBFB220B4917
:101D400000280ED1887800280BD08C7068468078E7
:101D5000400706D5487A04221043487201200AB091
:101D600010BD487A104048720020F8E700000020BB
:101D700008B50848084A4189114341811A2168463B
:101D8000017074214170C1218170032100F0FAFBC0
:101D900008BD000000000020C174000070B50124DF
:101DA000224610210E48FEF717FB0E48FEF7C4FB33
:101DB00000250D4E20280CD1FFF796FD00280DD0F0
:101DC000FFF7A8FE04461420FEF7EAF9002C03D022
:101DD00000E0B571204670BDFFF70AFF0124F8E767
:101DE00000040048A80000200000002008B50848B2
:101DF000084A4189114041811A21684601705421E5
:101E0000417081218170032100F0BCFB08BD0000FE
:101E1000000000207EABFFFFF0B51A4887B0426992
:101E2000012149040A43426142690A40059242691C
:101E300049000A434261406909260840F6060590B8
:101E4000002220213046FEF7C7FA0F4F0022102152
:101E50003846FEF7C1FA20200024012500900294A4
:101E60006946019503943046FEF712FA102000905F
:101E700002946946019503943846FEF709FA07B0C3
:101E8000F0BD0000001002400004004810B51248E8
:101E90001049016011494160002181600161416187
:101EA00081610122C161C2600162FEF749FB002825
:101EB00000D0FEE700210848FEF79AFA002800D07B
:101EC000FEE700210448FEF7B8FA002800D0FEE73C
:101ED00010BD000000540040A80000200A021000BD
:101EE00010B50D480B4901604B21490241600021AA
:101EF0008160C16001618161C1610C220162426146
:101F00000B4641620A46FEF7EFFF002800D0FEE7CD
:101F100010BD000000380140F400002070470000B0
:101F20008307FF22DB0E9A408907090E994000289B
:101F30000BDA0007000F0838830808489B001818C0
:101F4000C36993430B43C3617047830804489B00F4
:101F50001B181868904308431860704700ED00E0B4
:101F600000E400E07047704710B5FEF753FCFFF740
:101F700029F80D480188491C8BB2038000210122F9
:101F8000312B02D9094B1A700180094803885B1C68
:101F90009BB20380074CA34202D9074B1A70018001
:101FA00000F034FA10BD00001000002004000020F2
:101FB00012000020E70300000500002030B595B0B6
:101FC000012003900024102009940225049005208C
:101FD0000095C0040A9008950B946846FEF7DAFD58
:101FE000002800D0FEE707200C90012080020F900F
:101FF0000D950E9401210CA8FEF7E4FC002800D0FA
:10200000FEE7212010901294139410A8FEF766FCAE
:10201000002800D0FEE7FEF76BFD7D21C900FEF72A
:1020200061F8FEF7B7FF0420FEF7A6FF0022114675
:10203000501EFEF74FFC15B030BD0000134801687C
:102040000122114301604168114A11404160016859
:10205000104A11400160016801229204914301601D
:1020600041683F22120491434160C16A0909090194
:10207000C162016BFF22143291430163416B490835
:102080004900416300218160704700000010024058
:102090000CB8FF08FFFFF6FE10B5818CC90707D00A
:1020A00001684A6801235B049A43836A1A434A60C1
:1020B000818C890707D501684A6801231B049A436C
:1020C000C36A1A434A60818C490707D501684A6888
:1020D00001239B049A43036B1A434A60818C0907CE
:1020E00007D501684A680123DB039A43436B1A430F
:1020F0004A60818CC90607D50268916801231B03D9
:102100009943836B19439160818C890607D50168D7
:102110008A6801235B039A43C36B1A438A60818CEC
:10212000490612D503685A6801210905046C8A43DF
:1021300022435A60026C8A4207D102685168032325
:102140005B059943436C19435160818C090607D59F
:1021500001684A680123DB04806C9A4302434A60A9
:1021600010BD0021C166202260304272827201726D
:102170000846704710B5406A0022014640314A8344
:102180004A82FEF723FF10BD01680A68FF2321334E
:102190009A430A6001688A68520852008A602021C6
:1021A00060308172704710B501680A6840239A4315
:1021B0000A60202269210A54FFF71EF8002010BD92
:1021C00070B50246403203466033948B9D7A0168B5
:1021D000222D05D08869082210438861022070BD35
:1021E000898C012685683603B54202D10569002D28
:1021F0000BD02140446D651C45652170518B491EF3
:102200000904090C518307D015E0456D2140298050
:10221000416D891C4165F1E701680A68FF2421349A
:10222000A2430A6001688A68520852008A6020212D
:102230009972FEF7C9FF002070BD0000F8B5044692
:102240002369A268E5691A43636910202B430021C2
:1022500025681A432B680E463E4F3B4013432B60C4
:1022600023685A6803252D03AA43E5682A435A6068
:10227000236AA26925681A43AB680B273F02BB4358
:102280001343AB60344A2568954210D1334A126B30
:102290009207920F0ED0012A05D0022A05D0032AF8
:1022A00009D1022007E0042005E0082003E02C4AC1
:1022B000954200D100200122E369D203934224D148
:1022C00000280CD002280DD0042813D0082817D0DD
:1022D00001260A0912010807400F10432FE0FEF7FC
:1022E0000DFC09E061681F4A48088018FDF7FAFEF6
:1022F00081B2EEE7FEF712FC616840004A08F4E79D
:102300006168012248081204EFE7002808D002287B
:1023100009D004280BD0082814D001263046F8BD77
:10232000FEF7ECFB05E061680F4A48080CE0FEF799
:10233000F5FB61684A088018FDF7D4FE80B2216879
:10234000C860EBE7616848088018FDF7CBFE80B2F3
:10235000E860E3E7F369FFFF003801400010024046
:10236000004400400024F40000127A006921095C56
:10237000212901D00220704702464032518A0029AB
:1023800012D0012381681B03994202D101690029FF
:1023900015D0C16C4B1CC364006809780185508A54
:1023A000401E50820020704701680A6880239A43CB
:1023B0000A6000680168402211430160F2E7C16CC5
:1023C00003680988C905C90D1985C16C891CC164D8
:1023D000E5E7000030B50C4B9A78920713D48822B9
:1023E0005043C418224640321579001DEB18195489
:1023F0001079402800D2401C1071608801210843E8
:1024000060800020D08030BD1C00002010B50A483C
:1024100000214388DA070DD002464032D488641C7C
:10242000A4B2D480052C05D9022423435B085B00A9
:102430004380D18010BD00001C00002010B58A210F
:102440000448FDF76CFE0349012245310248FEF7BE
:1024500077FE10BD1C000020F400002010B50248DB
:10246000FEF7B6FD10BD0000F400002002E008C831
:10247000121F08C1002AFAD170477047002001E0FE
:1024800001C1121F002AFBD170470000F8B50646B3
:102490000024FDF7A7FF074600253CE00024FDF7D8
:1024A000A1FFC01B64280BD81D48FEF743F8002885
:1024B00006D11B48FEF740F82028EFD1002C07D0AA
:1024C000FFF7B2FB040025D1FFF7BAFB040021D1CE
:1024D00029460C22514330680091415C002909D102
:1024E0000099009A0831415A121D805800F04AF8AC
:1024F00004000FD130680099415C01290AD100998C
:102500000831435A0099091D42585521044800F0EA
:1025100009F804466D1C7068A842CAD82046F8BD68
:10252000A8000020FFB581B01F460124FDF75AFF27
:102530000646002501A807C83B46FEF7A5F8002877
:1025400015D100240CE0FDF74DFF851B642D01D94A
:10255000032405E00198FDF7EDFF002800D00124D9
:102560000198FDF7E9FF202801D0002CEBD001985D
:10257000FDF7E0FF042801D1642DDBD3204605B030
:10258000F0BD0000F3B581B00124FDF72BFF064636
:10259000002514485427009068460DC83946FEF7B8
:1025A000B1F8002815D100240CE0FDF71BFF851BB6
:1025B000642D01D9032405E00098FDF7BBFF002836
:1025C00000D001240098FDF7B7FF202801D0002C8F
:1025D000EBD00098FDF7AEFF042801D1642DDBD3CA
:1025E0002046FEBDA800002000B589B01F21684626
:1025F0000170002101710121029081810174401C50
:10260000059002216846018301A80790089107A858
:10261000FFF73CFF00280FD10848807800280BD036
:1026200068468178427808021043054940BA8842DA
:1026300002D1012009B000BD0020FBE7000000200E
:102640005530000000B589B01A216846017000219C
:1026500001710121029081810174401C05900221C9
:102660006846018301A80790089107A8FFF70EFFAD
:1026700000280FD10848807800280BD06846817860
:10268000427808021043054940BA884202D101202D
:1026900009B000BD0020FBE700000020553000001D
:1026A00010B5FEF7BFF8FFF789FCFFF7B5FBFFF7A2
:1026B00017FCFFF7EBFBFFF7C1FEFFF76FFBFFF720
:1026C00097FA002010BD0000000000000000010289
:1026D00003040607080900000000010203040000CB
:1026E00000270008000000201C0000006C240008E7
:1026F0001C2700081C0000204C0500007C2400085A
:1027000000000000000001000000000000000000C8
:0C271000000000000000000000127A0031
:04000005080000B53A
:00000001FF
