:020000040800F2
:1000000098060020F9430008093C00080B3C000852
:1000100000000000000000000000000000000000E0
:100020000000000000000000000000000F3C00087D
:100030000000000000000000113C0008133C000814
:100040009F430008000000001D4400081F440008F2
:1000500021440008234400082544000827440008E0
:1000600000000000294400082B4400082D4400082B
:100070002F44000831440008334400080000000009
:1000800035440008374400080000000039440008E7
:100090003B4400083D4400083F440008833C0008FE
:1000A000414400084344000845440008A53C0008BA
:1000B0004744000810B50400002C01D101205EE087
:1000C0004120205C002805D1002040216054200000
:1000D00000F03DFF24204121605420680068012188
:1000E00088432168086060683649014020680161E2
:1000F000206880683449014020688160E0680128F8
:1001000006D1A0688021090201432068816005E0D2
:10011000A06884210902014320688160E068022808
:1001200003D1802000012168486020684068274989
:100130000143206841602068C0682349014020686D
:10014000C160206961690143A06900020843216818
:10015000C860E069216A0143206801602068006886
:1001600001210143206801600020606420204121BA
:10017000605400202063002042216054002010BD04
:1001800010B50400002C01D1012019E024204121E8
:1001900060542068006801218843216808602000BD
:1001A00000F002FF00206064002041216054002024
:1001B0002063002042216054002040216054002030
:1001C00010BD0000FFFFFFF0FF7FFFFF0080000277
:1001D000F3B581B0040017001E0000214120205C0F
:1001E00020283CD120688069000401D5022037E036
:1001F0004020205C012801D1022031E00120402272
:10020000A05421204122A05410204222A0540020BA
:100210006064676266853748E06237486063608D76
:10022000FF2804D9FF20208580256D0403E0608D20
:1002300020858025AD048020800100902B00228D38
:10024000D2B268460189200000F094FD00204021D0
:1002500060540121200000F0A5FD002000E00220F4
:10026000FEBDF3B581B0040017001E00002141203F
:10027000205C20283CD120688069000401D5022040
:1002800037E04020205C012801D1022031E001202C
:100290004022A05422204122A05410204222A054E7
:1002A00000206064676266851248E06212486063FD
:1002B000608DFF2804D9FF20208580256D0403E090
:1002C000608D20858025AD049020800100902B005A
:1002D000228DD2B268460189200000F04BFD00203B
:1002E000402160540221200000F05CFD002000E06D
:1002F0000220FEBD0000FFFFEF03000838B5040038
:100300000D004220205C102827D14020205C0128CD
:1003100001D1022022E0012040216054022120006E
:1003200000F09AFD0121200000F096FD602041219F
:1003300060548020C001009080239B04012229008A
:1003400089B2200000F016FD0020402160541221E7
:10035000200000F027FD002000E0012032BD70B534
:1003600004002068866920680568606B002804D056
:100370002A0031002000636B984770BD70B50400FF
:100380002068866920680568F00509D5280607D524
:10039000606C012101436164802040002168C861D4
:1003A000700509D5280607D5606C082101436164F2
:1003B0008020C0002168C861B00509D5280607D58E
:1003C000606C022101436164802080002168C86163
:1003D000606C0B210140002903D0616C200000F00B
:1003E0000BFC70BD4121405C7047406C7047F8B514
:1003F00004000D00160000274020205C012801D1D8
:100400000220A8E0012040216054E8060CD5F00647
:100410000AD510202168C861606C04210143616421
:10042000200000F069FC8AE068070ED570070CD543
:10043000606A411C61622168496A0170208D401E1A
:100440002085608D401E608579E0A8070ED5B00735
:100450000CD5606A411C6162007821688862208D39
:10046000401E2085608D401E608568E0280647D5C7
:10047000700645D5208D002835D1608D002832D0FA
:10048000206840688005800D0700608DFF280DD929
:10049000FF2020850020009080235B04228DD2B2B3
:1004A000390089B2200000F065FC48E0608D2085AD
:1004B000E06A764988420AD000200090E36A228DE3
:1004C000D2B2390089B2200000F054FC37E000209D
:1004D000009080239B04228DD2B2390089B2200083
:1004E00000F048FC2BE020684068800103D4200025
:1004F00000F0FAF923E04021200000F07DFB1EE02F
:1005000068061CD570061AD5608D002813D12068A6
:100510004068800113D4E06A5C49884207D12068B2
:1005200040688021C90101432068416007E0200044
:1005300000F0DAF903E04021200000F05DFBA8069E
:1005400005D5B00603D52900200000F027FA0020C9
:10055000402160540020F2BD70B504000D0016006B
:100560004020205C012801D102208CE001204021A4
:100570006054E80635D5F00633D5608D002828D1C3
:10058000E06A80218904884204D0E06A80218904DD
:10059000884208D14120205C282804D1290020006D
:1005A00000F0F4FA63E0E06A384988420DD0412057
:1005B000205C292809D110202168C861200000F0A2
:1005C0009BFB200000F0BDF951E010202168C861BC
:1005D0004DE010202168C861606C04210143616412
:1005E00045E068071BD5700719D5608D00280BD032
:1005F000606A411C61622168496A0170208D401E59
:100600002085608D401E6085608D00282FD1E06AB6
:100610001E4988422BD0200000F093F927E02807DC
:1006200006D5300704D52900200000F0E9F81EE0C7
:10063000A8071CD5B0071AD5608D00280CD0606AB9
:10064000411C6162007821688862608D401E60856F
:10065000208D401E20850AE0E06A802149048842FE
:1006600002D0E06A002802D1200000F06AF9A80652
:1006700005D5B00603D52900200000F0FBF90020C5
:1006800040216054002070BD000000000000FFFF0A
:10069000FEB504000D001700002069468880002682
:1006A0004020205C012801D1022069E00120402186
:1006B0006054E80610D5F8060ED510202168C861F0
:1006C000606C0421014361641221200000F06AFB88
:1006D000200000F011FB4FE0280645D5780643D5F1
:1006E000206800684021884321680860608D0028E8
:1006F00035D06846216849688905890D8180608DFB
:10070000FF2805D9FF20208580204004060004E052
:10071000608D20858020800406000020009033003A
:10072000228DD2B268468188200000F023FB608DC4
:10073000218D401A60854120205C222807D1206845
:1007400000688021090201432068016014E02068EC
:1007500000688021C9010143206801600CE040214C
:10076000200000F049FA07E0A80605D5B80603D531
:100770002900200000F012F90020402160540020E0
:10078000FEBD70B504000D0016004020205C01285D
:1007900001D1022033E0012040216054E8061AD53F
:1007A000F00618D54120205C212803D1A06B0068F9
:1007B000406802E0E06B00684068002803D1102028
:1007C0002168C86117E010202168C861606C0421AD
:1007D000014361640FE0280705D5300703D50820E1
:1007E0002168C86107E0A80605D5B00603D5290031
:1007F000200000F03FF9002040216054002070BD2F
:10080000F3B581B0040000260025002700206946CA
:1008100008804120205C2821014028295DD12068E2
:100820008069000C0100C907C90F0E0020688069AB
:10083000000CFE2101400D00206880688005800DBD
:10084000070068462168C968FE220A400280E06805
:10085000022833D1280080B206210140380080B23E
:10086000C00906220240914216D13D00A06C401CF6
:10087000A064A06C022836D10020A0640820216862
:10088000C8610020402160542A0092B23100C9B2F0
:10089000200000F0D9FB26E068460088050004210E
:1008A000200000F0D9FA0020402160542A0092B2C2
:1008B0003100C9B2200000F0C7FB14E00421200081
:1008C00000F0CAFA0020402160542A0092B23100A0
:1008D000C9B2200000F0B8FB05E008202168C8611B
:1008E000002040216054F7BD10B5040000204221D3
:1008F00060544120205C212811D1202041216054E6
:1009000011202063002060630121200000F0A4FA80
:10091000002040216054200000F09CFC10E02020CA
:1009200041216054122020630020606302212000D6
:1009300000F092FA002040216054200000F07FFC7B
:1009400010BD10B504000020422160544120205CFD
:1009500029280FD128204121605421202063012122
:10096000200000F079FA002040216054200001F0BE
:1009700011F812E04120205C2A280ED128204121C4
:100980006054222020630221200000F065FA00203C
:1009900040216054200000F0FEFF10BD38B5040077
:1009A0000D0020202168C8612068406891490140FD
:1009B000206841600020206300206063CD48E06231
:1009C000E80606D510202168C861606C0421014347
:1009D0006164200000F090F90321200000F03CFA4F
:1009E000606C002803D14120205C602804D1616C38
:1009F000200000F001F93CE04120205C21281AD1C0
:100A00002020412160544220205C402809D1002050
:100A100042216054002040216054200000F0BCFFBF
:100A200027E0002042216054002040216054200033
:100A300000F010FC1DE04120205C222819D120206C
:100A4000412160544220205C402809D100204221ED
:100A50006054002040216054200000F09EFF08E018
:100A6000002042216054002040216054200000F00A
:100A7000E6FB31BD38B504000D0020202168C861B7
:100A800008202168C8610721200000F0E5F92068EE
:100A90004068802109020143206841602068406865
:100AA0005449014020684160200000F025F9206889
:100AB0000068400403D42068006800040BD541207E
:100AC000205C212803D1A06B0068406802E0E06B45
:100AD000006840686085608D002803D0606C042148
:100AE00001436164680712D5606A411C6162216834
:100AF000496A0170208D002809D0208D401E208574
:100B0000608D401E6085606C04210143616400209B
:100B1000206300204221605400206063606C002844
:100B20000CD0616C200000F067F84120205C282880
:100B30002BD12900200000F029F826E0E06A78494E
:100B400088420BD07648E06220204121605400208A
:100B500040216054200000F021FF16E04120205C7D
:100B6000222809D1202041216054002040216054D6
:100B7000200000F010FF08E02020412160540020F8
:100B800040216054200000F005FF31BD38B504005D
:100B90000D006348E0620020206320204121605462
:100BA00000204221605400206063680712D5606A0B
:100BB000411C61622168496A0170208D002809D0BA
:100BC000208D401E2085608D401E6085606C042154
:100BD000014361640721200000F03EF910202168E4
:100BE000C861002040216054200000F0D7FE31BDD4
:100BF0000000000000E800FE38B504000D000020F1
:100C0000422160543B48E06200206085606C2843CC
:100C100060644120205C282807D04120205C2928DE
:100C200003D04120205C2A280BD10321200000F0B2
:100C300013F9282041216054002020633948606363
:100C40000EE00721200000F007F94120205C602819
:100C500002D02020412160540020206300206063E6
:100C600020680068400415D5206800682E490140BE
:100C7000206801602D48A16B48630020402160542A
:100C8000A06B00F08DFE002832D0A06BA16B496BE9
:100C900088472DE020680068000415D520680068AA
:100CA00033490140206801602048E16B486300201F
:100CB00040216054E06B00F073FE002818D0E06B18
:100CC000E16B496B884713E04120205C602809D123
:100CD000202041216054002040216054200000F079
:100CE0008BFE05E0002040216054200000F0BDFA9A
:100CF00031BD00000000FFFF00B501688969890768
:100D000002D500210268916201688969C90705D48A
:100D10000168896901220A4301688A6100BD0000F7
:100D20000000FFFF59050008FFBFFFFF310D00085D
:100D300038B50400656A28684068802109020143CB
:100D4000286841600020A96B48630020E96B486374
:100D50004120285C602806D12020412168542800C9
:100D600000F04AFE02E0280000F07FFA31BD0000EA
:100D7000FF7FFFFFF0B4049C002506687668334FC0
:100D80003740BC460E00B6B2B705BF0D1600F6B22E
:100D900036043E431E43264367463E4307687E6053
:100DA000F0BC704710B502000023506B284CA042E5
:100DB00003D0506B274CA04222D1080080B24007DC
:100DC00002D51800B8230343080080B21124044060
:100DD000112C02D1180090230343080080B2122482
:100DE0000440122C02D1180020230343080080B2D3
:100DF00012240440122C21D11800402303431DE08B
:100E0000080080B2400702D51800B8230343080049
:100E100080B2C00702D51800F2230343080080B255
:100E2000800702D51800F4230343080080B212247F
:100E30000440122C02D118002023034310680068DC
:100E4000184314682060002010BD0000009800FCCA
:100E5000910600088307000810B50200002308006F
:100E600080B2C0070BD51800422303434120105C19
:100E700028240440282C02D01800B0230343080083
:100E800080B280070BD51800442303434120105C37
:100E900028240440282C02D01800B0230343080063
:100EA00080B2400702D51800B8230343080080B27F
:100EB00011240440112C02D1180090230343080090
:100EC00080B212240440122C02D1180020230343C4
:100ED000080080B212240440122C02D118004023D2
:100EE000034310680068984314682060002010BD18
:100EF00080B54F480068012101434D4801604C48CE
:100F000000680100C907C90F0091009849480068AE
:100F10008021490501434748016046480068802117
:100F20004905084000900098002200210420C04399
:100F300000F0D2FD002200210120C04300F0CCFDD2
:100F4000002200210020C04300F0C6FD01BD10B505
:100F500086B0040020683849884223D1C02001901F
:100F6000122002900120039003200490012005909C
:100F700001A9324800F0F4FD2E4800688021890361
:100F800001432C4801602B480068802189030840F8
:100F90000090009800220021172000F09DFD1720EE
:100FA00000F0A4FD06B010BD10B504002068224971
:100FB00088420CD11F480068214901401D4801604A
:100FC000C0211E4800F0BCFE172000F096FD10BDA9
:100FD00010B586B0040020681A49884225D114480B
:100FE00000688021C9010143114801601048006870
:100FF0008021C901084000900098B0204001019074
:10100000022002900020039003200490012005900C
:1010100001A99020C00500F0A3FD002200211B20A3
:1010200000F05AFD1B2000F061FD06B010BD00006D
:10103000181002401C1002400054004000040048F8
:10104000FFFFDFFF0038014070470C0270B501263A
:1010500001221021914800F016FF0025B948FFF742
:10106000C1F9202801D1002403E00020B64908700E
:1010700001242000C0B200281ED100F029FA05008A
:101080002800C0B2002812D000F019F80400142083
:1010900000F01EFF8948006800F02AFF88490860B8
:1010A0002000C0B2002807D100F026F804E001209B
:1010B00004000020A44908702000C0B270BD80B5B3
:1010C000804800888049088000F052FA00F006FB52
:1010D00000F01EFB01F04AF901209B490870002036
:1010E0009A49087001F080F9994909688842F9D352
:1010F00001F007F9002002BD10B500F0F9FB00284F
:101100000ED000F075FB04006C480068844205D0E6
:101110006A48046000F02FFB00F0FAFA01F074F95D
:101120008C48007800283CD000208A4908708A4802
:101130000078012801D100F029FF01F0B5F8002165
:10114000C943884209D085480021405E002804D167
:1011500001208249088001F0D4F881480078401CC1
:101160007F4908707E48007802281ADB00207C49FD
:10117000087079480078012813D17A48007803284C
:101180000FD17248007878280BDA6F480078012870
:1011900002D10120734908706C480078401C6B49EB
:1011A0000870714800780028A7D000206E490870A8
:1011B0006C480078012806D1012220219020C0052A
:1011C00000F061FE05E0002220219020C00500F023
:1011D0005AFE6648007800280CD05F480078012845
:1011E00008D162480078012804D101F08AF8002073
:1011F0005E49087058480078012800D07DE75748BC
:101200000021405E002800D177E756480078022888
:1012100011D1A84800880100491CA64A1180A6499E
:10122000098880B2814200D367E701F06AF80020A4
:10123000A049088061E700209E4908805DE700B56D
:1012400001689E4A914204D101219D4A11709D4A34
:10125000117000BD00B50168984A914204D1012186
:10126000994A1170974A117000BD0121974A117077
:101270000021944A1170704780B554213148FFF71E
:101280003DF802BD10B50124FFF7F6FF142000F071
:101290001FFE2C48FEF774FFC0B210BD00040048CA
:1012A00080B5142000F014FE28480078401C27491F
:1012B0000870AE48FEF7FEFE02BD000028020020C6
:1012C00010020020FA19000862020020F3B581B074
:1012D000012401F089F807000026A44D5420694636
:1012E000087068460389019A6846017889B2280027
:1012F000FEF76EFF00281BD1002004002800FFF736
:1013000071F8202814D02000C0B2002810D101F0BC
:101310006BF8C01B0600652E02D303200400EDE726
:101320002800FFF762F80028E8D001200400E5E774
:101330002800FFF75AF8042801D1642ED1D32000E9
:10134000C0B2FEBD940100201000002087020020E2
:101350000000002084020020110000206002002014
:101360008902002012000020850200208E02002049
:10137000FEB50500012401F037F807000026684695
:101380000389019A6846017889B22800FEF769FF4F
:1013900000281BD1002004002800FFF723F8202894
:1013A00014D02000C0B2002810D101F01DF8C01BDD
:1013B0000600652E02D303200400EDE72800FFF7A6
:1013C00014F80028E8D001200400E5E72800FFF722
:1013D0000CF8042801D1642ED1D32000C0B2FEBD88
:1013E000F8B506000025002700F0FEFF009000245D
:1013F000706884425BD25D48FEF7F4FF202812D06B
:101400000020050000F0F0FF0099401A0700652F4A
:1014100002D30320050006E05448FEF7E6FF00284B
:10142000E9D0012005002800C0B2002809D0FFF74C
:1014300029FF05002800C0B2002802D1FFF730FFC5
:1014400005002800C0B2002814D130680C21614387
:10145000405C00280ED130680C216143401800899F
:10146000010089B230680C22624380184068FFF79F
:101470002DFF05002800C0B2002816D130680C21CD
:101480006143405C012810D130680C216143401851
:10149000008903009BB230680C2161434018426808
:1014A00055213248FFF764FF0500641CA0E72800BF
:1014B000C0B2F2BD64020020660200200054004069
:1014C000820200208002002081020020830200208E
:1014D00030B589B000247F20694608700020694635
:1014E000087368460490012003A90881012003A91C
:1014F00008736846401C0790022003A9888203A84D
:101500000190022002901948FEF76CFF202801D1BB
:10151000002500E00125B1480078202805D12800E9
:10152000C0B2002801D1012004002000C0B2002870
:1015300018D001A8FFF754FF002813D1A84800785D
:1015400000280FD00020A6490870684640780002A5
:10155000694689780143A348814201D1012002E014
:10156000002000E0002009B030BD00009401002000
:1015700080B51C20694608708020694648700020AC
:101580006946887003216846FFF7A0FE0A2000F034
:101590009FFC00F089F81B2069460870924800887B
:1015A00080B2000A694648708F4800886946887092
:1015B00003216846FFF78AFE1920694608708B48A8
:1015C000008880B2000A69464870884800886946E9
:1015D000887003216846FFF779FE15206946087078
:1015E000BF48008880B2000A69464870BC4800883D
:1015F0006946887003216846FFF768FE1120694636
:101600000870B848008880B2000A69464870B5483A
:1016100000886946887003216846FFF757FE092055
:1016200069460870B048008880B2000A6946487070
:10163000AD4800886946887003216846FFF746FE7A
:101640000D2069460870A948008880B2000A6946E2
:101650004870A64800886946887003216846FFF7ED
:1016600035FE1F2069460870C348008880B2000A12
:1016700069464870C04800886946887003216846FA
:10168000FFF724FE1A2069460870BC48008880B223
:10169000000A69464870B948008869468870032185
:1016A0006846FFF713FE01BD80B5B5480088B5490F
:1016B00009880143B24801801A2069460870B14880
:1016C000008880B2000A69464870AE4800886946C2
:1016D000887003216846FFF7F9FD01BD80B5A84871
:1016E0000088A64909888843A54908801A206946C8
:1016F0000870A248008880B2000A694648709F4876
:1017000000886946887003216846FFF7DFFD01BD48
:1017100000B589B01A206946087000206946087330
:1017200068460490012003A90881012003A90873D9
:101730006846401C0790022003A9888203A80190F4
:101740000220029001A8FFF74BFE002810D1244888
:10175000007800280CD068464078000269468978F5
:1017600001432048814201D1012002E0002000E035
:10177000002009B000BD00B589B01F20694608707F
:1017800000206946087368460490012003A9088177
:10179000012003A908736846401C0790022003A992
:1017A000888203A801900220029001A8FFF718FE8A
:1017B000002810D10A48007800280CD068464078EC
:1017C00000026946897801430648814201D101201F
:1017D00002E0002000E0002009B000BDD50100209B
:1017E00082020020553000004A1000085E1B0008ED
:1017F00030B589B002206946087000206946087338
:1018000068460490012003A90881012003A90873F8
:101810006846401C0790022003A9888203A8019013
:101820000220029001A8FFF7DBFD002824D15648D2
:101830000078002820D0002053490870684640787E
:10184000F021014000290AD050480078802101434E
:101850004E48017001204E49087000203DE00020F4
:101860004B490870684640780002F02109010140A8
:101870006846807801430C00032069460870002008
:101880006946087368460490012003A90881012075
:1018900003A908736846401C0790022003A98882A8
:1018A00003A801900220029001A8FFF799FD0028EB
:1018B0000DD135480078002809D000203249087041
:1018C0006846407800026946897808430500A4B25A
:1018D000802040026043ADB2401909B030BD000025
:1018E0006E260008B22A0008B62A00080A35000849
:1018F00000B589B018206946087000206946087351
:1019000068460490012003A90881012003A90873F7
:101910006846401C0790022003A9888203A8019012
:101920000220029001A8FFF75BFD00281AD116489B
:101930000078002816D00020134908706846807887
:10194000400707D511480078042101430F48017072
:1019500001200EE00D480078FB2101400B4801708A
:10196000002006E009480078FB210140074801708B
:10197000002009B000BD0000924300089E19000835
:1019800062020020FA19000882020020860200206C
:101990008802002070477047704770477047815435
:1019A00038B5040000252120205C022804D0042042
:1019B000A063012005001CE0206800680E21884318
:1019C0002168086020680068012188432168086058
:1019D0000120216C8840E16B486001202121605486
:1019E000002020216054606B002802D02000616B31
:1019F00088472800C0B232BD7047C1740121C206B9
:101A0000D20E91404C4A116070470121C206D20E9D
:101A100091404A4A11607047F0B5020052B2002A64
:101A200023D5474A03005BB21B071B0F083B9D08E9
:101A300004235D43424B040064B22407240F083C96
:101A4000A408042674431B59FF248607B60F0827F1
:101A50007E43B440A3438C01E4B28607B60F082747
:101A60007E43B4401C4354511CE0364A03005BB231
:101A70009B0804246343D258FF238407A40F08253E
:101A80006C43A3409A438B01DBB28407A40F082563
:101A90006C43A34013432B4A040064B2A4080425FA
:101AA0006C431351F0BD10B50400601E8021490441
:101AB000884201D301200EE0601E23490860032103
:101AC0000020C043FFF7A8FF00202049086007203E
:101AD0001F490860002010BD70B505000C001600FD
:101AE0002100280040B2FFF797FF70BD10B5040039
:101AF000200040B2FFF782FF10BD10B504002000A7
:101B000040B2FFF782FF10BD10B504002000FFF7C0
:101B1000CAFF10BD00B5042806D10D49096804228A
:101B20000A430B490A6005E0094909680422914308
:101B3000074A116000BD000000E100E080E100E024
:101B40001CED00E000E400E014E000E018E000E03C
:101B500010E000E080B500F001F801BD7047000022
:101B6000F8B50022002300240D68D540002D00D1D7
:101B7000E5E00D68012696402E403300002B00D191
:101B8000DBE04D68022D02D04D68122D1ED1D50824
:101B90000426754345192E6A0F27BC4615006D07AC
:101BA0006D0F04277D436746AF40BE430D69AC46C9
:101BB00015006F077F0F04256F436546BD40354311
:101BC0002C00D5080426754345192C6207680325A7
:101BD000AC46160002256E436546B540AF430D790D
:101BE000AD07AD0FAC46160002256E436546B54005
:101BF0003D4305604E68012E08D04C68022C05D08C
:101C00004C68112C02D04C68122C1FD18768032419
:101C1000A4461600022466436446B440A743CC6839
:101C2000A4461600022466436446B4403C438460E4
:101C3000476801269640B743BC464F683E00F6060B
:101C4000F60F964067463E4335004560C76803245B
:101C5000A4461600022466436446B440A7438C6839
:101C6000A4461600022466436446B4403C43C46064
:101C70004E68F60061D58D4D2D6801262E438B4DA3
:101C80002E608A4D2D682E00F607F60F0096009DF7
:101C9000874D960804277E43AE590F27BC46150092
:101CA000AD07AD0F04277D436746AF40BE43902587
:101CB000ED05A84201D100240FE07E4CA04201D1E5
:101CC00001240AE07C4CA04201D1022405E07B4CB7
:101CD000A04201D1032400E005241500AD07AD0F9B
:101CE00004277D43AC403443714D960804277E435E
:101CF000AC51734D2D689D434E68F60300D51D43CE
:101D00006F4C25606F4C24689C434E68B60300D529
:101D10001C436C4D2C606C4D2D689D434E68F60243
:101D200000D51D43684C2560684C24689C434E6870
:101D3000B60200D51C43654D2C60521C14E7F1BD62
:101D4000F8B50022002300240D00D540002D00D15D
:101D500098E0012595400D402B00002B00D18FE02D
:101D600006680327BC46150002277D436746AF403F
:101D7000BE430660D5080426754345190095D5086D
:101D80000426754345192F6A0F25AC4615006E07CA
:101D9000760F04256E436546B540AF43009D2F6224
:101DA00086680327BC46150002277D436746AF407F
:101DB000BE438660456801269640B5434560C668C7
:101DC0000327BC46150002277D436746AF40BE434C
:101DD000C660374D960804277E43AE590F27BC4690
:101DE0001500AD07AD0F04277D436746AF40374070
:101DF0003C009025ED05A84201D100250FE02D4DB6
:101E0000A84201D101250AE02B4DA84201D10225AB
:101E100005E02A4DA84201D1032500E00525160062
:101E2000B607B60F04277E43B540AC4228D10F2534
:101E30001600B607B60F04277E43B5402C001C4D94
:101E4000960804277E43AE59A643194FBC46950811
:101E500004277D4367467E51194D2D689D43184EDA
:101E60003560184D2D689D43164E3560164D2D6812
:101E70009D43154E3560154D2D689D43134E3560BD
:101E8000521C61E7F1BD00B51300DBB2002B03D09B
:101E90000B009BB2836102E00B009BB2836200BD2A
:101EA00042690B009BB25A404261704718100240D1
:101EB000080001400004004800080048000C0048E9
:101EC0000004014004040140080401400C040140E6
:101ED00031B500F089FA0400009D0020C04385421E
:101EE00000D06D1C00F080FA001BA842FAD331BD6F
:101EF0009D2102000AD002D4491E9218FCD5C905C2
:101F0000100A1206524100D3012A484170470000CE
:101F100010B51C00029B401A1B1B5843511A00F0BD
:101F200013FB001910BD00B513480078401C12497E
:101F30000870124800681249096840180F49086083
:101F40000D480078102815D10C48006800090D498B
:101F500008600020094908600020074908700A4805
:101F60000078002806D0002007490870054800685E
:101F7000BE49086000BD00008F020020480200201A
:101F800028020020300200201300002080B5FFF757
:101F9000CAFFB7480078012800D0CAE0B5480068F9
:101FA000B249096888425DD2B2480068AF49096801
:101FB000401AB1490860B0480068B0490022895E03
:101FC000884243DAAE480021405EAB490968884246
:101FD0003CDAAC480088401CAA490880AA4800881E
:101FE000FF219231884207DB0020A74908800020AA
:101FF0000021A64A03C2083AA4480CC808389D48E4
:102000000068002180185941A04A03C2083A9E483E
:102010000088401C9C4908809D480088994909888F
:10202000884213D2994803C8974A1288002300F0C7
:10203000E5FA8E49086000200021944A03C2083A5C
:1020400000209149088000208E4908800020914995
:10205000088000200021904A03C2083A00208F49DE
:10206000088066E08348006880490968401A824910
:1020700008608B48008880490968884243DA7E48B6
:1020800000688849098888423DDA82480088401CF7
:102090008049088081480088FF219231884207DB0F
:1020A00000207E490880002000217B4A03C2083AB4
:1020B00079480CC808386F480068002180185941D9
:1020C000754A03C2083A75480088401C7349088065
:1020D0006F4800886F49098888421FD26E4803C83C
:1020E0006E4A1288002300F089FA604908600020D7
:1020F0000021694A03C2083A00206849088000208C
:10210000644908800AE0002062490880002000211C
:10211000614A03C2083A00206049088000205949FA
:10212000088000200021594A03C2083A002056497D
:102130000880504800684D490968401A4E490860B7
:102140004D48006800F08FFA78490988814223DA07
:1021500001207749087000207649088000207649E0
:10216000087000207549086000204A490880002056
:10217000444908807248006872490968884234D22C
:1021800002203B4908700020694908706C480068CB
:10219000401C6C49086028E00020654908703448FC
:1021A0000078022815D1012063490870664800684C
:1021B00062490968884218D200205F4908700120EE
:1021C0002B49087000205F49086000205B490860C7
:1021D0000BE0584800880100491C564A118080B223
:1021E000512802DB00205749086058480078002831
:1021F00005D057480088401C5549088005E000205C
:10220000534908800020534908701848006819494C
:102210000968884207D21748006814490968401ABB
:102220004D49086008E01348006810490968401AE1
:1022300000F019FA48490860FF2000900023474A3F
:10224000002145480068FFF763FE434908604248A3
:102250000068FF2803D9FF205449087004E03E4875
:102260000068C0085149087001BD00002C02002020
:1022700012000020300200204402002076020020DC
:10228000740200206C0200207C0200201802002052
:10229000780200206E020020200200207E02002032
:1022A000720200207002002000B54148007800282A
:1022B0000CD02B4800680F2148432A490968401870
:1022C0000009274908602648006819E0244800688A
:1022D0002449096840182249086023480078401CB6
:1022E0002149087020480078102807D11C48006850
:1022F00000091B49086001202D4908700020C043D7
:1023000000BD10B50024FFF7CFFF0121294A11704D
:102310000021074A11700021074A11700021094A63
:1023200011600021054A116010BD00006802002004
:102330008B0200207A0200208C0200203C02002048
:1023400038020020340200204002002088020020D1
:102350006A0200208D0200204C0200203057050048
:10236000500200202802002090020020FA200001E4
:1023700011490880114812490880642011490880D9
:102380001148124908806320C04311490880AA20DF
:102390004000104908801048104908600E48104954
:1023A00008600D480F490880704700008A0200202D
:1023B000910200201200002068020020C4090000E1
:1023C00070020020720200203CF6FFFF7402002021
:1023D000760200207802002010270000380200203A
:1023E000400200206602002001480068704700BFDC
:1023F0005402002000B5BFF34F8F3C483C490860B1
:10240000BFF34F8F00BFFDE7E0B53A4800F0FAF99F
:10241000002867D03748C07808285CD11520364995
:10242000887008203449C8703448007832490871EF
:1024300033480068000E3049487131480068000C8C
:102440002D4988712E480068000A2B49C8712C4814
:102450000068294908722B480068000E2649487216
:1024600028480068000C2449887226480068000A41
:102470002149C872234800681F4908732248006830
:10248000000A1D494873204800681B4988731F488B
:102490000068000A1849C8731C4800681649087487
:1024A0001B48008880B2000A134948741848008805
:1024B00011498874174800780F49C8741648007885
:1024C0000D4908750C4984B06846182200F0D6FA08
:1024D0000FBC00F016F90748C078552804D1FFF763
:1024E00089FF01E000F04FF907BD00000400FA0584
:1024F0000CED00E0F8010020E00100208602002041
:10250000280200202C020020340200203C0200207F
:102510006E0200208A02002012000020F4460028EB
:1025200004D4494200F013F8404260474042002979
:1025300005D45FD000F00BF8404249426047494261
:1025400000F005F84942604703460B43E6D40022F9
:10255000030A8B420BD203098B4219D243088B42E8
:102560002ED2411A00D20146524110467047FF2236
:1025700009023FD012068B4205D3121209028B4288
:1025800001D31212090203098B4219D300E0090A90
:10259000C3098B4201D3CB01C01A524183098B423C
:1025A00001D38B01C01A524143098B4201D34B0125
:1025B000C01A524103098B4201D30B01C01A524188
:1025C000C3088B4201D3CB00C01A524183088B420F
:1025D00001D38B00C01A524143088B4201D34B00F8
:1025E000C01A5241884200D3401A5241CFD201460C
:1025F0001046704708B500F05BFA08BD124224D0BF
:10260000994228D970B500251B4202D00C00002148
:1026100009E00024012649186441944200D3A41A19
:102620007641F8D33100012601E0764109D2001845
:1026300064416D41A41A9D41F7D2A4185D41B619B9
:10264000F5D3300022002B0070BD1B42D8D108B555
:1026500000F030FA08BD01D19042D3D202000B0045
:10266000002100207047002800D54042704702102A
:1026700070B58A250024984E22002900300000F011
:102680001BFA01229549C34800F003FB70BD924933
:102690004988934A0A4090494A80704780B5BD48AE
:1026A0000068C069000710D50A2301226946B948AD
:1026B00000F02AFA002300220021B64800F04EFE66
:1026C00001228649B34800F0E4FA01BD30B50200AA
:1026D0000D2000231C000D00E4B2EDB2AC4205D287
:1026E0001C00E4B2145D00195B1CF3E7C0B230BDFE
:1026F00080B5FFF779FE00F0F7FE00F07FFEC0B274
:1027000002BD0FB4F8B57448408880B2800801005B
:10271000C907C90F002931D106A88078042803DB36
:1027200006A88078162800DB28E0FFF7E1FF06A95D
:10273000487006A880780400611EC9B206A8401C33
:10274000FFF7C4FF694608760020B6490870B6480E
:1027500004702500EDB206AEB44F2A0031003800F7
:1027600000F078F95C484088042101435A484180D0
:1027700059484088082101435748418001B00498D6
:10278000F0BC05B0004780B55348408880B280084F
:102790000100C907C90F002931D04F48408880B2D5
:1027A000C0080100C907C90F002914D04A48408851
:1027B0009F4901404848418000209E4908609A484E
:1027C000027892B24448974909784018010048318C
:1027D000704800F023FA974800680100491C954AA8
:1027E0001160954988420AD320219020C005FFF747
:1027F00057FB394840883A49014037484180FFF744
:102800004DFF01BDF8B505003348408880B240084F
:102810000100C907C90F002956D0684687490978C1
:10282000017000208549087068460078042803DBA1
:1028300068460078112807DB274840888049014016
:1028400025484180002046E06846234949791C22FA
:102850004A4042700224200069460978C0B288428A
:102860000ED21D482100C9B2401800796946497846
:10287000414019482200D2B280180171641CEAE775
:1028800068460078411EC9B26E48FFF71FFF124923
:102890000979C0B281420FD1684606786A4F32008A
:1028A0003900280000F0D6F80B4840886449014000
:1028B0000948418001200EE00748408860490140F6
:1028C00005484180002006E0034840885C490140FB
:1028D000014841800020F2BD140000205900002072
:1028E000FBFF000030B5594A528892B252081300DB
:1028F000DB07DB0F002B4CD1544A0300DBB28824EA
:102900006343D218514B0400E4B288256C431B1971
:1029100044241B5DD21811714C4A0300DBB2882499
:102920006343D2184423D25C402A09DA474A0300A1
:10293000DBB288246343D2184423D25C521C07E0E4
:10294000424A0300DBB288246343D2184423D25C9A
:102950003E4B0400E4B288256C431B1944241A55ED
:102960003A4A0300DBB288246343D2185288012319
:102970001343364A0400E4B288256C43121953808D
:102980000022324B0400E4B288256C431B19462414
:102990001A5330BD2401002000B5002001283FDA81
:1029A0002A4988224243891889780A00D207D20F1F
:1029B000002A33D025498822424389184622895A61
:1029C000491C224A88234343D2184623D1521F4927
:1029D0008822424389184622895A06291EDB1B4950
:1029E000882242438918498802220A4317498823CA
:1029F0004343C9184A8015498822424389184988A7
:102A0000134A0A40114988234343C9184A800021C8
:102A10000E4A88234343D2184623D152401CBDE7B7
:102A200000BD00009C0000209D0000205C000020F4
:102A3000F7FF000058020020112700005800002076
:102A4000FDFF0000190000201800002014000020E5
:102A5000FEFF0000124207D08B0706D00B78491CFE
:102A60000370401C521EF7D87047830706D00B78BE
:102A7000491C0370401C521EF9D1704770B4103AC3
:102A800003D378C9103A78C0FBD2530701D318C9D1
:102A900018C001D508C908C0D20704D30B88038029
:102AA000891C801C002A01D50B78037070BC70470C
:102AB00070470A007047D6041206130A1A43130C13
:102AC0001A4300BF094205D0830705D00270401C9D
:102AD000491EF9D170470000130030B414001500EE
:102AE000103902D310393CC0FCD2490700D30CC0C6
:102AF00000D504C0890002D30280801C002900D5C3
:102B0000027030BC70470000FCB583B005000C00BB
:102B1000170000266A20285C20287CD1002C03D0D6
:102B2000380080B2002801D1012075E0A86880211A
:102B30004901884207D12869002804D12000C00734
:102B400001D5012068E06820285C012801D102201D
:102B500062E00120682168540020E86622206A2192
:102B60006854FFF741FC019058202F525A202F52F1
:102B7000A8688021490188420AD12869002803D128
:102B800073485C21685210E0FF205C2168520CE021
:102B9000A868002809D12869002803D1FF205C21FA
:102BA000685202E07F205C2168525C202E5A5A2035
:102BB000285A002827D05A20285A401E5A216852E5
:102BC00004980090019B00222021280000F0C0FA08
:102BD000002801D003201FE0A86880214901884215
:102BE0000AD12869002807D102942868808C3040D7
:102BF00002990880A41CDAE72868808C3100014023
:102C00002170641CD3E720206A21685400206821C9
:102C10006854002000E0022005B0F0BD10B50300AC
:102C20006920185C202832D1002903D0100080B21E
:102C3000002801D101202BE0986880246401A04283
:102C400007D11869002804D10800C00701D5012068
:102C50001EE06820185C012801D1022018E0012044
:102C600068241855D96450201A5252201A52002054
:102C7000D866212069241855002068241855186842
:102C800000688024044318680460002000E00220EB
:102C900010BD10B503006A20185C202856D1002909
:102CA00003D0100080B2002801D101204FE09868C5
:102CB00080246401A04207D11869002804D10800CB
:102CC000C00701D5012042E06820185C012801D12D
:102CD00002203CE0012068241855596558201A52FA
:102CE0005A201A52986880246401A0420AD11869B7
:102CF000002803D116485C24185310E0FF205C2400
:102D000018530CE09868002809D11869002803D1ED
:102D1000FF205C24185302E07F205C24185300201D
:102D2000D86622206A24185500206824185518688F
:102D3000806801240443186884601868006890243F
:102D40006400044318680460002000E0022010BD05
:102D5000FF010000F8B504002068C5692068066816
:102D60002807000F00900098002807D1A80605D575
:102D7000B00603D5200000F0A6FA85E02068876839
:102D80000098002870D0F80704D49020400030400C
:102D9000002869D0E80708D5F00506D5012021688C
:102DA0000862E06E01210143E166A80708D5F80733
:102DB00006D5022021680862E06E04210143E16625
:102DC000680708D5F80706D5042021680862E06E78
:102DD00002210143E16628070AD5B00601D4F807AD
:102DE00006D5082021680862E06E08210143E166EB
:102DF000E06E002837D0A80604D5B00602D5200022
:102E000000F061FAE06E000703D420688068400695
:102E100024D5200000F0D4F920688068400619D538
:102E2000206880684021884321688860606E00289F
:102E30000CD01648616E4863606EFEF7B1FD002845
:102E400011D0606E616E496B88470CE0200000F085
:102E50005BFB08E0200000F057FB04E0200000F0DE
:102E600053FB0020E0660FE0280605D5300603D5A9
:102E7000200000F0DEF907E0680605D5700603D5EE
:102E8000200000F010FAFFE7F1BD00001932000841
:102E9000FEB50500002010216A46917000216A46A7
:102EA000118000260027A9682A690A436B69134329
:102EB000E96919432A6812689A4B13400B432A6840
:102EC00013602A685268984B1340EA681A432B68CB
:102ED0005A60AA692B6A134301932A689268934B3C
:102EE0001340019A1A432B689A602A68904B9A42C1
:102EF00015D1B24800688007800F002805D002284D
:102F000009D006D3032802D007E000240EE00224F3
:102F10000CE004240AE0082408E0102406E02868F5
:102F2000AF49884201D1002400E01024E8698021E3
:102F30000902884246D12000C0B2002806D00228EB
:102F400010D0042817D0082821D02AE000F038FE3D
:102F5000022148436968490840186968FFF7F7FA91
:102F6000060020E0686840089E4940186968FFF73D
:102F7000EEFA060017E000F0E5FD0221484369681B
:102F8000490840186968FFF7E2FA06000BE0686834
:102F900040088021490240186968FFF7D8FA060006
:102FA00001E001200700904830406946320092B2AB
:102FB00052085207520F02430A8068460088296867
:102FC000C8603BE02000C0B2002806D0022810D024
:102FD000042819D0082823D02EE000F0F1FD6968FC
:102FE000490840186968FFF7B2FA80B22968C860DA
:102FF00024E0686840087D4940186968FFF7A7FA2F
:1030000080B22968C86019E000F09CFD6968490831
:1030100040186968FFF79BFA80B22968C8600DE024
:10302000686840088021090240186968FFF78FFA34
:1030300080B22968C86001E0012007003800C0B2F2
:10304000FEBD00B52421415CC90707D50168496868
:10305000674A0A40816A1143026851602421415C39
:10306000890707D501684968624A0A40C16A114365
:10307000026851602421415C490707D5016849680D
:103080005D4A0A40016B1143026851602421415C92
:10309000090707D501684968584A0A40416B11433E
:1030A000026851602421415CC90607D5016889681E
:1030B000534A0A40816B1143026891602421415CAC
:1030C000890607D5016889684E4A0A40C16B1143D9
:1030D000026891602421415C490614D50168496861
:1030E000494A0A40016C114302685160016C802218
:1030F0005203914207D101684968444A0A40416C31
:103100001143026851602421415C090607D501681A
:1031100049683F4A0A40816C11430268516000BD12
:1031200000000000F369FFFFFFCFFFFFFFF4FFFF88
:103130000038014001000020C86620206922885420
:1031400020206A228854002068228854002070477A
:10315000F4B504000D001F00069E2068C0692840D9
:10316000A84201D1012000E0002069460978884288
:1031700021D10020C0438642EFD0002E04D0FFF7BB
:1031800033F9C01B8642E8D220680068214901401B
:103190002068016020688068012188432168886078
:1031A00020206921605420206A2160540020682179
:1031B0006054032000E00020F2BD00003010024007
:1031C00001680968644A0A4001680A600168896800
:1031D000012291430268916020216A228154704744
:1031E000004400400024F400F0FF000000127A00C8
:1031F000FFFFFDFFFFFFFEFFFFFFFBFFFF7FFFFF66
:10320000FFEFFFFFFFDFFFFFFFFFEFFFFFFF9FFF6E
:10321000FFFFF7FF5FFEFFFF38B50400656A00207F
:103220005A216852002052216852280000F06CF99F
:1032300031BD00B501006920085C212831D1522040
:10324000085A00280DD108680068802398430B684D
:103250001860086800684023034308680360002082
:1032600020E0886880235B0198420DD1086900281E
:103270000AD1C86C02001088C005C00D0B68188503
:10328000C86C801CC86405E0C86C431CCB64007823
:103290000B6818855220085A401E5223C85200203D
:1032A00000E0022000BD10B5040020680068402145
:1032B0008843216808602020692160542000FFF7BE
:1032C000E6F9002010BDF8B504005C20255A6A20FC
:1032D000205C222837D12068868CA0688021490193
:1032E00088420BD12069002808D1606D07002800B2
:1032F00030403880606D801C606506E0606D411C68
:10330000616531002A000A4002705A20205A401E8E
:103310005A21605280B2002813D1206800680E49FB
:10332000014020680160206880680121884321688D
:10333000886020206A216054200000F0B8FC002042
:1033400008E0002006E02068806908210143206829
:1033500081610220F2BD0000DFFEFFFFF7B504002F
:103360001F000025002C01D1012042E06920205CD3
:10337000002805D10020682160542000FDF728FEB8
:103380002420692160542068006801218843216855
:1033900008602000FFF77CFD012801D1012028E012
:1033A000606A002802D02000FFF74BFE206880688A
:1033B0008021C901014320688160206880680D492F
:1033C00001400198084321688860029840053E0446
:1033D00006432068006808490140314320680160C5
:1033E0002068006801210143206801602000FFF788
:1033F000A1FEFEBDFF7FFFFFFFFF00FCF8B53D48CB
:103400000078002859D13B4840683B4948433B4934
:1034100040183B49FFF79BF83748414337480818A5
:103420003749FFF794F83448414334480818344981
:10343000FFF78DF830484143304808183049FFF70E
:1034400086F82D4841432D4808182D49FFF77FF88D
:1034500029484143294808182949FFF778F82648A0
:103460004143264808182649FFF771F8224841438E
:10347000224808182249FFF76AF81E484160214D8A
:10348000102604461C4F606878431C4940181C49AC
:10349000FFF75DF8616029607943184808181849FA
:1034A000FFF755F8616069600835761EEBD1154865
:1034B000C16F80228150012020700E4C60680E493F
:1034C00048430E4940180E49FFF741F861600D4B23
:1034D000180080300278D206520E9A1813680360E2
:1034E000116098008008F2BD024900220A7048600D
:1034F00070470000080000200D6619005FF36E3C65
:10350000FFFFFF7FA0000020704700007CB5040093
:1035100000252078C00770D5AA4800680C2101401A
:10352000042909D0A74800680C21014008290CD1C2
:10353000A4480068C00308D5BA48006880035CD579
:103540006068002859D1012033E26068012807D162
:10355000B4480068802149020143B24801602DE06F
:10356000606800280CD1AF480068AF490140AD4801
:103570000160AC480068AD490140AA4801601DE007
:10358000606805280ED1A74800688021C902014360
:10359000A4480160A3480068802149020143A14872
:1035A00001600BE09F4800689F4901409D48016011
:1035B0009C4800689D4901409A4801606068002865
:1035C0000DD0FEF711FF050096480068800314D463
:1035D000FEF70AFF401B6528F6D30320E9E1FEF75A
:1035E00003FF05008F480068800306D5FEF7FCFE48
:1035F000401B6528F6D30320DBE12078800757D5F0
:10360000704800680C210140002909D06D4800680D
:103610000C210140082916D16A480068C00312D461
:1036200080480068800704D5E068012801D00120A7
:10363000BFE17C480068F82188432169C900014343
:103640007848016034E0E06800281DD075480068C3
:103650000121014373480160FEF7C6FE0500714871
:103660000068800706D4FEF7BFFE401B0328F6D390
:1036700003209EE16B480068F82188432169C90056
:1036800001436848016013E06648006801218843EF
:1036900064490860FEF7A8FE0500624800688007DC
:1036A00006D5FEF7A1FE401B0328F6D3032080E1D8
:1036B000207800072AD5E069002813D0BD480068AB
:1036C00001210143BB480160FEF78EFE0500B948A9
:1036D000006880071AD4FEF787FE401B0328F6D344
:1036E000032066E1B348006801218843B1490860BE
:1036F000FEF77AFE0500AF480068800706D5FEF7A2
:1037000073FE401B0328F6D3032052E120784007C4
:1037100000D497E00026A8480068C0000FD4A6484F
:103720000068802149050143A3480160A248006860
:1037300080214905084000900098012006009F481C
:103740000068C00514D49D480068802149000143E9
:103750009A480160FEF748FE050098480068C005D9
:1037600006D4FEF741FE401B6528F6D3032020E176
:10377000A068012806D192480068012101439048C1
:1037800001602DE0A06800280CD18D48006801215F
:1037900088438B4908608A48006804218843884927
:1037A00008601DE0A06805280ED185480068042146
:1037B0000143834801608248006801210143804839
:1037C00001600DE0041002407D480068012188433B
:1037D0007B4908607A48006804218843784908607A
:1037E000A06800280ED0FEF7FFFD050074480068B1
:1037F00080071DD4FEF7F8FD401B72498842F5D3BF
:103800000320D6E0FEF7F0FD05006D480068800754
:103810000ED5FEF7E9FD401B6A498842F5D3032027
:10382000C7E000BF00100240FFFFFEFFFFFFFBFFED
:103830003000C0B2012805D15F48006862490140EC
:103840005D4801602078C00655D56069012823D104
:103850005E480068042101435C4801605B480068E1
:103860000121014359480160FEF7BEFD050057489C
:103870000068800706D4FEF7B7FD401B0328F6D387
:10388000032096E051480068F8218843A169C900E7
:1038900001434E4801602EE060690421C94388421B
:1038A0000FD14A48006804218843484908604748C6
:1038B0000068F8218843A169C900014343480160B9
:1038C00019E04248006804210143404801603F4834
:1038D0000068012188433D490860FEF785FD050029
:1038E0003A480068800706D5FEF77EFD401B032896
:1038F000F6D303205DE0206A002859D08C48006888
:103900000C210140082951D0206A02283AD1894867
:1039100000688949014087480160FEF765FD06009F
:1039200084480068800106D5FEF75EFD801B0328F1
:10393000F6D303203DE0814800680F218843E16A07
:1039400001437E4801607A4800687D490140A06AD1
:103950000843616A01437648016076480068802127
:103960004904014373480160FEF73EFD05007148BC
:10397000006880011CD4FEF737FD401B0328F6D3F6
:10398000032016E06B4800686B49014069480160FC
:10399000FEF72AFD050067480068800108D5FEF79C
:1039A00023FD401B0328F6D3032002E0012000E0A2
:1039B000002076BD241002401C1002400070004020
:1039C0002010024089130000FFFFFFEF3410024077
:1039D00070B505000C0000267F4800680100C9078B
:1039E000C90FA1420FD27C480068012188432043BF
:1039F00079490860784800680100C907C90FA142E9
:103A000001D0012092E02878800707D54848006857
:103A1000F0218843A9680143454801602878C00720
:103A200052D56868012805D142480068800310D447
:103A300001207BE06868022805D13E4800688001CB
:103A400007D4012072E03B480068800701D40120C0
:103A50006CE03748006803218843696801433448B3
:103A60000160FEF7C1FC0600686801280DD13048EE
:103A700000680C210140042926D0FEF7B5FC801B0C
:103A800056498842F3D3032050E0686802280DD1DC
:103A9000274800680C210140082915D0FEF7A4FC36
:103AA000801B4E498842F3D303203FE02048006842
:103AB0000C210140002907D0FEF796FC801B4749E6
:103AC0008842F3D3032031E0434800680100C9076E
:103AD000C90F8C420FD2404800680121884320431F
:103AE0003D4908603C4800680100C907C90FA14270
:103AF00001D001201AE02878400707D50C4800685B
:103B000037490140E86808430949086000F01AF89D
:103B10003449074A126812091207120F895CC8401B
:103B200031490860002000F0EBF8002070BD000073
:103B30000410024000100240FFFFFFFE2C10024064
:103B4000FFFFC2FFF0B589B005A829491022FEF792
:103B500095FF01A827491022FEF790FF00200024BE
:103B6000002500260021009120490F680C213940D2
:103B7000042902D0082902D01CE01F481BE005A838
:103B8000B90C0907090F405C060001A81B49096828
:103B90000907090F405C0400F80306D51648210008
:103BA000FEF7D5FC7043050002E0154870430500A0
:103BB000280000E0104809B0F0BD0B4800687047CD
:103BC00080B5FFF7FAFF0F49084A1268120A520738
:103BD000520F895CC84002BD0020024089130000DA
:103BE000FFF8FFFFE8430008040000200410024033
:103BF000C8430008D843000800127A002C10024085
:103C000000093D0014440008704700B5FEE7704706
:103C1000704780B500F086F8FDF79CFF2C480078CF
:103C2000002804D02B480068401C2A4908602A4814
:103C30000078002804D029480068401C2749086003
:103C400027480088401C2649088080B2322805DBBE
:103C5000012024490870002021490880224800885A
:103C6000401C2149088080B2FA218900884205DB86
:103C700001201E49087000201B490880FEF78CFEB9
:103C800001BD80B51A4800688069E021C900014083
:103C9000002903D01648FCF771FB02E01448FCF73A
:103CA0005EFB01BD80B51348FFF754F801BD10B5A8
:103CB000040020681049884209D11048017800208A
:103CC000FEF710FE01220D490A48FEF7E2FF10BD83
:103CD0008B020020340200208C0200203C020020D5
:103CE0005C020020840200205E0200208502002089
:103CF00094010020240100200038014059000020D8
:103D000010B50400FFF759FFFA218900FEF71FFCE8
:103D1000FDF7FAFE002221000020C043FDF7DCFE83
:103D2000002010BD02480068401C0149086070472F
:103D30005402002080B500F01BF900F00CF800F0F0
:103D4000C0F800F091F800F055F8FEF791FCFDF78F
:103D50007DF9002002BD80B594B0022008900120BA
:103D60000B9010200C900220109000201190A020A9
:103D7000800312900020139008A8FFF7C7FB0028CB
:103D800003D09021714800F0F1F807200090022044
:103D90000190002002908020C0000390012168461D
:103DA000FFF716FE002803D09D21684800F0DEF8DA
:103DB00021200490002006900020079004A800F025
:103DC000E7F8002803D0A521604800F0CFF8FFF7FE
:103DD000F4FEFA218900FEF7BAFBFDF795FE0420F8
:103DE000FDF798FE002200210020C043FDF774FE7D
:103DF00015B000BD80B5564856490860564855492B
:103E0000486000205349886001205249C860002062
:103E10005049086100204F49486100204D498861A0
:103E200000204C49C86100204A4908624948FCF713
:103E300041F9002803D0C321444800F097F800213D
:103E4000444800F047F9002803D0CA213F4800F059
:103E50008DF800213F4800F070F9002803D0D121EF
:103E60003A4800F083F801BD80B53C483C49086001
:103E7000962000023A4948600020394988600020B5
:103E80003749C8600020364908610C203449486130
:103E900000203349886100203149C8610020304941
:103EA000086200202E4948620023002200212C488D
:103EB000FFF754FA002803D0E621244800F056F812
:103EC00001BD80B586B02748006880218902014382
:103ED000244801602348006880218902084000903E
:103EE0000098204800688021C90201431D480160F4
:103EF0001C4800688021C9020840009000980022F8
:103F000020219020C005FDF7BEFF00221021164899
:103F1000FDF7B9FF202001900120029000200390BE
:103F20000020049001A99020C005FDF719FE102083
:103F3000019001200290002003900020049001A92C
:103F40000948FDF70DFE07B000BD0000384200082B
:103F500000540040940100200A0210000038014083
:103F600024010020141002400004004800B5FEE7C0
:103F700080B5064800681021014304480160002014
:103F8000FFF7BEFEFCF7B4FF002002BD0020024098
:103F9000F8B50400002500262068C00372D500276C
:103FA00044480068C0000FD4424800688021490599
:103FB0000143404801603F480068802149050840AE
:103FC00000900098012007003B480068C00514D409
:103FD0003948006880214900014337480160FEF7F5
:103FE00003FA050034480068C00506D4FEF7FCF962
:103FF000401B6528F6D303205BE030480068C021F1
:10400000890001400E00002E2AD06068C02189007E
:1040100001408E4224D029480068294901400E0001
:104020002648006880214902014324480160234852
:104030000068244901402148016020480660F007DB
:104040000ED5FEF7D1F905001C480068800707D49B
:10405000FEF7CAF9401B1C498842F5D3032028E02B
:104060001648006816490140606808431349086013
:104070003800C0B2012805D10E480068134901403C
:104080000C4801602078C00707D51148006803215B
:104090008843A16801430E4801602078800607D557
:1040A0000B48006810218843E1680143084801601B
:1040B0000020F2BD1C1002400070004020100240A1
:1040C000FFFCFFFFFFFFFEFF89130000FFFFFFEF74
:1040D0003010024000B502004120105C20282AD197
:1040E0004020105C012801D1022025E0012040235E
:1040F000D05424204123D0541068006801239843F1
:104100001368186010680068244B0340106803604F
:10411000106800680843136818601068006801237D
:1041200003431068036020204123D0540020402323
:10413000D054002000E0022000BD30B50200002372
:104140004120105C202827D14020105C012801D19B
:10415000022022E001204024105524204124105543
:10416000106800680124A04314682060106800688B
:104170000B4D05400C022C43106804601068006869
:104180000125054310680560202041255055002079
:1041900040255055002000E0022030BDFFEFFFFF1A
:1041A000FFF0FFFF19480068012101431748016033
:1041B0001748006817490140154801601348006816
:1041C0001549014011480160104800681349014039
:1041D0000E4801600E480068114901400C4801601A
:1041E000104800680F2188430E4908600E48006897
:1041F0000E4901400C4801600D48006801218843C8
:104200000B49086000200B4908607047001002400D
:10421000041002400CB8FF08FFFFF6FEFFFFFBFF93
:10422000FFFFC0FF2C10024030100240ECFEFFFFE9
:104230003410024008100240433A5C5573657273B3
:104240005C617267655C4465736B746F705C4B5244
:104250004E4B20415247455C50524F4A454C4552C7
:104260005C53454E2D4C444331362D485730315C1C
:104270004669726D776172652D315C53454E2D4CE8
:10428000444331362D535730315C4C53545F4C44CA
:1042900043313631325C4C53545F4C4443313631F8
:1042A000325C5372635C6D61696E2E6300000000C6
:1042B00070B40123002413E00168001D194202D0EC
:1042C0004D466D1E49190C60091D121F042AFAD2B1
:1042D0000D00960701D50C80AD1C1A4000D02C7043
:1042E0000268001D002AE7D170BC704730B401227B
:1042F0000168001D00290FD00368C3184468083006
:10430000144202D04D466D1E64191D6825601B1DA8
:10431000241D091FECD0F8E730BC704710B50749E1
:1043200079441831064C7C44163404E0081D0A68B0
:10433000891888470100A142F8D110BD080000008B
:10434000280000006DFFFFFF800200001400002025
:104350000000000099FFFFFF14000000580000005B
:10436000000000200000000000F00DF8002801D03F
:10437000FFF7D4FF00BF00BF002000BF00BFFFF762
:10438000D9FC00F002F80120704780B500F002F877
:1043900001BD00800746384600F002F8FBE7FEE763
:1043A00080B500BF00BF024A11001820ABBEFBE77A
:1043B00026000200B80B000000127A000000000086
:1043C00001000000010101010203040506070809BC
:1043D0000A0B0C0D0E0F101001020304050607084E
:1043E000090A0B0C0D0E0F10000000000000000069
:1043F00001020304060708090148804701480047F5
:10440000A54100080944000800BF00BF00BF00BF6D
:10441000FFF7AAFF0000000001020304FEE7FEE729
:10442000FEE7FEE7FEE7FEE7FEE7FEE7FEE7FEE764
:10443000FEE7FEE7FEE7FEE7FEE7FEE7FEE7FEE754
:08444000FEE7FEE7FEE7FEE7E0
:0400000508004409A2
:00000001FF
